{
  "_format": "hh-sol-artifact-1",
  "contractName": "SwapRouter",
  "sourceName": "contracts/SwapRouter.sol",
  "abi": [
    {
      "inputs": [
        {
          "internalType": "address",
          "name": "_factory",
          "type": "address"
        },
        {
          "internalType": "address",
          "name": "_WIP9",
          "type": "address"
        }
      ],
      "stateMutability": "nonpayable",
      "type": "constructor"
    },
    {
      "inputs": [],
      "name": "WIP9",
      "outputs": [
        {
          "internalType": "address",
          "name": "",
          "type": "address"
        }
      ],
      "stateMutability": "view",
      "type": "function"
    },
    {
      "inputs": [
        {
          "components": [
            {
              "internalType": "bytes",
              "name": "path",
              "type": "bytes"
            },
            {
              "internalType": "address",
              "name": "recipient",
              "type": "address"
            },
            {
              "internalType": "uint256",
              "name": "deadline",
              "type": "uint256"
            },
            {
              "internalType": "uint256",
              "name": "amountIn",
              "type": "uint256"
            },
            {
              "internalType": "uint256",
              "name": "amountOutMinimum",
              "type": "uint256"
            }
          ],
          "internalType": "struct ISwapRouter.ExactInputParams",
          "name": "params",
          "type": "tuple"
        }
      ],
      "name": "exactInput",
      "outputs": [
        {
          "internalType": "uint256",
          "name": "amountOut",
          "type": "uint256"
        }
      ],
      "stateMutability": "payable",
      "type": "function"
    },
    {
      "inputs": [
        {
          "components": [
            {
              "internalType": "address",
              "name": "tokenIn",
              "type": "address"
            },
            {
              "internalType": "address",
              "name": "tokenOut",
              "type": "address"
            },
            {
              "internalType": "uint24",
              "name": "fee",
              "type": "uint24"
            },
            {
              "internalType": "address",
              "name": "recipient",
              "type": "address"
            },
            {
              "internalType": "uint256",
              "name": "deadline",
              "type": "uint256"
            },
            {
              "internalType": "uint256",
              "name": "amountIn",
              "type": "uint256"
            },
            {
              "internalType": "uint256",
              "name": "amountOutMinimum",
              "type": "uint256"
            },
            {
              "internalType": "uint160",
              "name": "sqrtPriceLimitX96",
              "type": "uint160"
            }
          ],
          "internalType": "struct ISwapRouter.ExactInputSingleParams",
          "name": "params",
          "type": "tuple"
        }
      ],
      "name": "exactInputSingle",
      "outputs": [
        {
          "internalType": "uint256",
          "name": "amountOut",
          "type": "uint256"
        }
      ],
      "stateMutability": "payable",
      "type": "function"
    },
    {
      "inputs": [
        {
          "components": [
            {
              "internalType": "bytes",
              "name": "path",
              "type": "bytes"
            },
            {
              "internalType": "address",
              "name": "recipient",
              "type": "address"
            },
            {
              "internalType": "uint256",
              "name": "deadline",
              "type": "uint256"
            },
            {
              "internalType": "uint256",
              "name": "amountOut",
              "type": "uint256"
            },
            {
              "internalType": "uint256",
              "name": "amountInMaximum",
              "type": "uint256"
            }
          ],
          "internalType": "struct ISwapRouter.ExactOutputParams",
          "name": "params",
          "type": "tuple"
        }
      ],
      "name": "exactOutput",
      "outputs": [
        {
          "internalType": "uint256",
          "name": "amountIn",
          "type": "uint256"
        }
      ],
      "stateMutability": "payable",
      "type": "function"
    },
    {
      "inputs": [
        {
          "components": [
            {
              "internalType": "address",
              "name": "tokenIn",
              "type": "address"
            },
            {
              "internalType": "address",
              "name": "tokenOut",
              "type": "address"
            },
            {
              "internalType": "uint24",
              "name": "fee",
              "type": "uint24"
            },
            {
              "internalType": "address",
              "name": "recipient",
              "type": "address"
            },
            {
              "internalType": "uint256",
              "name": "deadline",
              "type": "uint256"
            },
            {
              "internalType": "uint256",
              "name": "amountOut",
              "type": "uint256"
            },
            {
              "internalType": "uint256",
              "name": "amountInMaximum",
              "type": "uint256"
            },
            {
              "internalType": "uint160",
              "name": "sqrtPriceLimitX96",
              "type": "uint160"
            }
          ],
          "internalType": "struct ISwapRouter.ExactOutputSingleParams",
          "name": "params",
          "type": "tuple"
        }
      ],
      "name": "exactOutputSingle",
      "outputs": [
        {
          "internalType": "uint256",
          "name": "amountIn",
          "type": "uint256"
        }
      ],
      "stateMutability": "payable",
      "type": "function"
    },
    {
      "inputs": [],
      "name": "factory",
      "outputs": [
        {
          "internalType": "address",
          "name": "",
          "type": "address"
        }
      ],
      "stateMutability": "view",
      "type": "function"
    },
    {
      "inputs": [
        {
          "internalType": "bytes[]",
          "name": "data",
          "type": "bytes[]"
        }
      ],
      "name": "multicall",
      "outputs": [
        {
          "internalType": "bytes[]",
          "name": "results",
          "type": "bytes[]"
        }
      ],
      "stateMutability": "payable",
      "type": "function"
    },
    {
      "inputs": [],
      "name": "refundIP",
      "outputs": [],
      "stateMutability": "payable",
      "type": "function"
    },
    {
      "inputs": [
        {
          "internalType": "address",
          "name": "token",
          "type": "address"
        },
        {
          "internalType": "uint256",
          "name": "value",
          "type": "uint256"
        },
        {
          "internalType": "uint256",
          "name": "deadline",
          "type": "uint256"
        },
        {
          "internalType": "uint8",
          "name": "v",
          "type": "uint8"
        },
        {
          "internalType": "bytes32",
          "name": "r",
          "type": "bytes32"
        },
        {
          "internalType": "bytes32",
          "name": "s",
          "type": "bytes32"
        }
      ],
      "name": "selfPermit",
      "outputs": [],
      "stateMutability": "payable",
      "type": "function"
    },
    {
      "inputs": [
        {
          "internalType": "address",
          "name": "token",
          "type": "address"
        },
        {
          "internalType": "uint256",
          "name": "nonce",
          "type": "uint256"
        },
        {
          "internalType": "uint256",
          "name": "expiry",
          "type": "uint256"
        },
        {
          "internalType": "uint8",
          "name": "v",
          "type": "uint8"
        },
        {
          "internalType": "bytes32",
          "name": "r",
          "type": "bytes32"
        },
        {
          "internalType": "bytes32",
          "name": "s",
          "type": "bytes32"
        }
      ],
      "name": "selfPermitAllowed",
      "outputs": [],
      "stateMutability": "payable",
      "type": "function"
    },
    {
      "inputs": [
        {
          "internalType": "address",
          "name": "token",
          "type": "address"
        },
        {
          "internalType": "uint256",
          "name": "nonce",
          "type": "uint256"
        },
        {
          "internalType": "uint256",
          "name": "expiry",
          "type": "uint256"
        },
        {
          "internalType": "uint8",
          "name": "v",
          "type": "uint8"
        },
        {
          "internalType": "bytes32",
          "name": "r",
          "type": "bytes32"
        },
        {
          "internalType": "bytes32",
          "name": "s",
          "type": "bytes32"
        }
      ],
      "name": "selfPermitAllowedIfNecessary",
      "outputs": [],
      "stateMutability": "payable",
      "type": "function"
    },
    {
      "inputs": [
        {
          "internalType": "address",
          "name": "token",
          "type": "address"
        },
        {
          "internalType": "uint256",
          "name": "value",
          "type": "uint256"
        },
        {
          "internalType": "uint256",
          "name": "deadline",
          "type": "uint256"
        },
        {
          "internalType": "uint8",
          "name": "v",
          "type": "uint8"
        },
        {
          "internalType": "bytes32",
          "name": "r",
          "type": "bytes32"
        },
        {
          "internalType": "bytes32",
          "name": "s",
          "type": "bytes32"
        }
      ],
      "name": "selfPermitIfNecessary",
      "outputs": [],
      "stateMutability": "payable",
      "type": "function"
    },
    {
      "inputs": [
        {
          "internalType": "int256",
          "name": "amount0Delta",
          "type": "int256"
        },
        {
          "internalType": "int256",
          "name": "amount1Delta",
          "type": "int256"
        },
        {
          "internalType": "bytes",
          "name": "_data",
          "type": "bytes"
        }
      ],
      "name": "storyHuntV3SwapCallback",
      "outputs": [],
      "stateMutability": "nonpayable",
      "type": "function"
    },
    {
      "inputs": [
        {
          "internalType": "address",
          "name": "token",
          "type": "address"
        },
        {
          "internalType": "uint256",
          "name": "amountMinimum",
          "type": "uint256"
        },
        {
          "internalType": "address",
          "name": "recipient",
          "type": "address"
        }
      ],
      "name": "sweepToken",
      "outputs": [],
      "stateMutability": "payable",
      "type": "function"
    },
    {
      "inputs": [
        {
          "internalType": "address",
          "name": "token",
          "type": "address"
        },
        {
          "internalType": "uint256",
          "name": "amountMinimum",
          "type": "uint256"
        },
        {
          "internalType": "address",
          "name": "recipient",
          "type": "address"
        },
        {
          "internalType": "uint256",
          "name": "feeBips",
          "type": "uint256"
        },
        {
          "internalType": "address",
          "name": "feeRecipient",
          "type": "address"
        }
      ],
      "name": "sweepTokenWithFee",
      "outputs": [],
      "stateMutability": "payable",
      "type": "function"
    },
    {
      "inputs": [
        {
          "internalType": "uint256",
          "name": "amountMinimum",
          "type": "uint256"
        },
        {
          "internalType": "address",
          "name": "recipient",
          "type": "address"
        }
      ],
      "name": "unwrapWIP9",
      "outputs": [],
      "stateMutability": "payable",
      "type": "function"
    },
    {
      "inputs": [
        {
          "internalType": "uint256",
          "name": "amountMinimum",
          "type": "uint256"
        },
        {
          "internalType": "address",
          "name": "recipient",
          "type": "address"
        },
        {
          "internalType": "uint256",
          "name": "feeBips",
          "type": "uint256"
        },
        {
          "internalType": "address",
          "name": "feeRecipient",
          "type": "address"
        }
      ],
      "name": "unwrapWIP9WithFee",
      "outputs": [],
      "stateMutability": "payable",
      "type": "function"
    },
    {
      "stateMutability": "payable",
      "type": "receive"
    }
  ],
  "bytecode": "0x60c06040526000196000553480156200001757600080fd5b5060405162003035380380620030358339810160408190526200003a9162000076565b6001600160601b0319606092831b8116608052911b1660a052620000ad565b80516001600160a01b03811681146200007157600080fd5b919050565b6000806040838503121562000089578182fd5b620000948362000059565b9150620000a46020840162000059565b90509250929050565b60805160601c60a05160601c612f2c620001096000398061012f52806108ff5280610b775280610ca1528061118652806112b0528061183e528061189e528061191f5250806105c45280610b375280611e2c5250612f2c6000f3fe6080604052600436106101125760003560e01c8063c2e3140a116100a5578063df2ab5bb11610074578063eff7a11311610059578063eff7a11314610302578063f28c049814610315578063f3995c6714610328576101bd565b8063df2ab5bb146102dc578063e0e189a0146102ef576101bd565b8063c2e3140a1461028e578063c45a0155146102a1578063c654ba70146102b6578063db3e2198146102c9576101bd565b8063a4a78f0c116100e1578063a4a78f0c14610226578063ac9650d814610239578063addc969914610259578063c04b8d591461027b576101bd565b80631f970982146101c2578063414bf389146101ca5780634659a494146101f35780637454f50214610206576101bd565b366101bd573373ffffffffffffffffffffffffffffffffffffffff7f000000000000000000000000000000000000000000000000000000000000000016146101bb57604080517f08c379a000000000000000000000000000000000000000000000000000000000815260206004820152600860248201527f4e6f742057495039000000000000000000000000000000000000000000000000604482015290519081900360640190fd5b005b600080fd5b6101bb61033b565b6101dd6101d83660046129fe565b61034d565b6040516101ea9190612df7565b60405180910390f35b6101bb61020136600461277c565b6104bf565b34801561021257600080fd5b506101bb61022136600461286e565b61057f565b6101bb61023436600461277c565b6106c6565b61024c6102473660046127dc565b6107a3565b6040516101ea9190612cb0565b34801561026557600080fd5b5061026e6108fd565b6040516101ea9190612c3d565b6101dd610289366004612953565b610921565b6101bb61029c36600461277c565b610a80565b3480156102ad57600080fd5b5061026e610b35565b6101bb6102c4366004612b34565b610b59565b6101dd6102d73660046129fe565b610d6f565b6101bb6102ea3660046126dd565b610eff565b6101bb6102fd36600461271e565b61101c565b6101bb610310366004612b05565b611182565b6101dd610323366004612a1a565b611348565b6101bb61033636600461277c565b61147c565b471561034b5761034b3347611514565b565b600081608001358061035d611662565b11156103ca57604080517f08c379a000000000000000000000000000000000000000000000000000000000815260206004820152601360248201527f5472616e73616374696f6e20746f6f206f6c6400000000000000000000000000604482015290519081900360640190fd5b61047060a08401356103e260808601606087016126ba565b6103f3610100870160e088016126ba565b604080518082019091528061040b60208a018a6126ba565b61041b60608b0160408c01612ae2565b61042b60408c0160208d016126ba565b60405160200161043d93929190612bc7565b60405160208183030381529060405281526020013373ffffffffffffffffffffffffffffffffffffffff16815250611666565b91508260c001358210156104b9576040517f08c379a00000000000000000000000000000000000000000000000000000000081526004016104b090612d78565b60405180910390fd5b50919050565b604080517f8fcbaf0c00000000000000000000000000000000000000000000000000000000815233600482015230602482015260448101879052606481018690526001608482015260ff851660a482015260c4810184905260e48101839052905173ffffffffffffffffffffffffffffffffffffffff881691638fcbaf0c9161010480830192600092919082900301818387803b15801561055f57600080fd5b505af1158015610573573d6000803e3d6000fd5b50505050505050505050565b600084138061058e5750600083135b61059757600080fd5b60006105a582840184612a52565b905060008060006105b984600001516117ec565b9250925092506105eb7f000000000000000000000000000000000000000000000000000000000000000084848461181d565b5060008060008a1361062c578473ffffffffffffffffffffffffffffffffffffffff168473ffffffffffffffffffffffffffffffffffffffff16108961065d565b8373ffffffffffffffffffffffffffffffffffffffff168573ffffffffffffffffffffffffffffffffffffffff16108a5b91509150811561067c57610677858760200151338461183c565b610573565b855161068790611a1a565b156106ac57855161069790611a26565b86526106a68133600089611a61565b50610573565b80600081905550839450610573858760200151338461183c565b604080517fdd62ed3e00000000000000000000000000000000000000000000000000000000815233600482015230602482015290517fffffffffffffffffffffffffffffffffffffffffffffffffffffffffffffffff9173ffffffffffffffffffffffffffffffffffffffff89169163dd62ed3e91604480820192602092909190829003018186803b15801561075b57600080fd5b505afa15801561076f573d6000803e3d6000fd5b505050506040513d602081101561078557600080fd5b5051101561079b5761079b8686868686866104bf565b505050505050565b60608167ffffffffffffffff811180156107bc57600080fd5b506040519080825280602002602001820160405280156107f057816020015b60608152602001906001900390816107db5790505b50905060005b828110156108f6576000803086868581811061080e57fe5b90506020028101906108209190612e00565b60405161082e929190612c2d565b600060405180830381855af49150503d8060008114610869576040519150601f19603f3d011682016040523d82523d6000602084013e61086e565b606091505b5091509150816108d45760448151101561088757600080fd5b600481019050808060200190518101906108a191906128e9565b6040517f08c379a00000000000000000000000000000000000000000000000000000000081526004016104b09190612d2e565b808484815181106108e157fe5b602090810291909101015250506001016107f6565b5092915050565b7f000000000000000000000000000000000000000000000000000000000000000081565b6000816040015180610931611662565b111561099e57604080517f08c379a000000000000000000000000000000000000000000000000000000000815260206004820152601360248201527f5472616e73616374696f6e20746f6f206f6c6400000000000000000000000000604482015290519081900360640190fd5b335b60006109af8560000151611a1a565b9050610a088560600151826109c85786602001516109ca565b305b600060405180604001604052806109e48b60000151611c1d565b81526020018773ffffffffffffffffffffffffffffffffffffffff16815250611666565b60608601528015610a28578451309250610a2190611a26565b8552610a35565b8460600151935050610a3b565b506109a0565b8360800151831015610a79576040517f08c379a00000000000000000000000000000000000000000000000000000000081526004016104b090612d78565b5050919050565b604080517fdd62ed3e0000000000000000000000000000000000000000000000000000000081523360048201523060248201529051869173ffffffffffffffffffffffffffffffffffffffff89169163dd62ed3e91604480820192602092909190829003018186803b158015610af557600080fd5b505afa158015610b09573d6000803e3d6000fd5b505050506040513d6020811015610b1f57600080fd5b5051101561079b5761079b86868686868661147c565b7f000000000000000000000000000000000000000000000000000000000000000081565b600082118015610b6a575060648211155b610b7357600080fd5b60007f000000000000000000000000000000000000000000000000000000000000000073ffffffffffffffffffffffffffffffffffffffff166370a08231306040518263ffffffff1660e01b8152600401808273ffffffffffffffffffffffffffffffffffffffff16815260200191505060206040518083038186803b158015610bfc57600080fd5b505afa158015610c10573d6000803e3d6000fd5b505050506040513d6020811015610c2657600080fd5b5051905084811015610c9957604080517f08c379a000000000000000000000000000000000000000000000000000000000815260206004820152601160248201527f496e73756666696369656e742057495039000000000000000000000000000000604482015290519081900360640190fd5b8015610d68577f000000000000000000000000000000000000000000000000000000000000000073ffffffffffffffffffffffffffffffffffffffff16632e1a7d4d826040518263ffffffff1660e01b815260040180828152602001915050600060405180830381600087803b158015610d1257600080fd5b505af1158015610d26573d6000803e3d6000fd5b505050506000612710610d428584611c2c90919063ffffffff16565b81610d4957fe5b0490508015610d5c57610d5c8382611514565b61079b85828403611514565b5050505050565b6000816080013580610d7f611662565b1115610dec57604080517f08c379a000000000000000000000000000000000000000000000000000000000815260206004820152601360248201527f5472616e73616374696f6e20746f6f206f6c6400000000000000000000000000604482015290519081900360640190fd5b610e9560a0840135610e0460808601606087016126ba565b610e15610100870160e088016126ba565b6040518060400160405280886020016020810190610e3391906126ba565b610e4360608b0160408c01612ae2565b610e5060208c018c6126ba565b604051602001610e6293929190612bc7565b60405160208183030381529060405281526020013373ffffffffffffffffffffffffffffffffffffffff16815250611a61565b91508260c00135821115610ed5576040517f08c379a00000000000000000000000000000000000000000000000000000000081526004016104b090612d41565b507fffffffffffffffffffffffffffffffffffffffffffffffffffffffffffffffff600055919050565b60008373ffffffffffffffffffffffffffffffffffffffff166370a08231306040518263ffffffff1660e01b8152600401808273ffffffffffffffffffffffffffffffffffffffff16815260200191505060206040518083038186803b158015610f6857600080fd5b505afa158015610f7c573d6000803e3d6000fd5b505050506040513d6020811015610f9257600080fd5b505190508281101561100557604080517f08c379a000000000000000000000000000000000000000000000000000000000815260206004820152601260248201527f496e73756666696369656e7420746f6b656e0000000000000000000000000000604482015290519081900360640190fd5b801561101657611016848383611c50565b50505050565b60008211801561102d575060648211155b61103657600080fd5b60008573ffffffffffffffffffffffffffffffffffffffff166370a08231306040518263ffffffff1660e01b8152600401808273ffffffffffffffffffffffffffffffffffffffff16815260200191505060206040518083038186803b15801561109f57600080fd5b505afa1580156110b3573d6000803e3d6000fd5b505050506040513d60208110156110c957600080fd5b505190508481101561113c57604080517f08c379a000000000000000000000000000000000000000000000000000000000815260206004820152601260248201527f496e73756666696369656e7420746f6b656e0000000000000000000000000000604482015290519081900360640190fd5b801561079b5760006127106111518386611c2c565b8161115857fe5b049050801561116c5761116c878483611c50565b6111798786838503611c50565b50505050505050565b60007f000000000000000000000000000000000000000000000000000000000000000073ffffffffffffffffffffffffffffffffffffffff166370a08231306040518263ffffffff1660e01b8152600401808273ffffffffffffffffffffffffffffffffffffffff16815260200191505060206040518083038186803b15801561120b57600080fd5b505afa15801561121f573d6000803e3d6000fd5b505050506040513d602081101561123557600080fd5b50519050828110156112a857604080517f08c379a000000000000000000000000000000000000000000000000000000000815260206004820152601160248201527f496e73756666696369656e742057495039000000000000000000000000000000604482015290519081900360640190fd5b8015611343577f000000000000000000000000000000000000000000000000000000000000000073ffffffffffffffffffffffffffffffffffffffff16632e1a7d4d826040518263ffffffff1660e01b815260040180828152602001915050600060405180830381600087803b15801561132157600080fd5b505af1158015611335573d6000803e3d6000fd5b505050506113438282611514565b505050565b6000816040013580611358611662565b11156113c557604080517f08c379a000000000000000000000000000000000000000000000000000000000815260206004820152601360248201527f5472616e73616374696f6e20746f6f206f6c6400000000000000000000000000604482015290519081900360640190fd5b61143860608401356113dd60408601602087016126ba565b60408051808201909152600090806113f58980612e00565b8080601f01602080910402602001604051908101604052809392919081815260200183838082843760009201919091525050509082525033602090910152611a61565b5060005491508260800135821115610ed5576040517f08c379a00000000000000000000000000000000000000000000000000000000081526004016104b090612d41565b604080517fd505accf000000000000000000000000000000000000000000000000000000008152336004820152306024820152604481018790526064810186905260ff8516608482015260a4810184905260c48101839052905173ffffffffffffffffffffffffffffffffffffffff88169163d505accf9160e480830192600092919082900301818387803b15801561055f57600080fd5b6040805160008082526020820190925273ffffffffffffffffffffffffffffffffffffffff84169083906040518082805190602001908083835b6020831061158b57805182527fffffffffffffffffffffffffffffffffffffffffffffffffffffffffffffffe0909201916020918201910161154e565b6001836020036101000a03801982511681845116808217855250505050505090500191505060006040518083038185875af1925050503d80600081146115ed576040519150601f19603f3d011682016040523d82523d6000602084013e6115f2565b606091505b505090508061134357604080517f08c379a000000000000000000000000000000000000000000000000000000000815260206004820152600360248201527f5354450000000000000000000000000000000000000000000000000000000000604482015290519081900360640190fd5b4290565b600073ffffffffffffffffffffffffffffffffffffffff8416611687573093505b600080600061169985600001516117ec565b9194509250905073ffffffffffffffffffffffffffffffffffffffff808316908416106000806116ca868686611e25565b73ffffffffffffffffffffffffffffffffffffffff1663128acb088b856116f08f611e63565b73ffffffffffffffffffffffffffffffffffffffff8e1615611712578d611738565b876117315773fffd8963efd1fc6a506488495d951d5263988d25611738565b6401000276a45b8d6040516020016117499190612daf565b6040516020818303038152906040526040518663ffffffff1660e01b8152600401611778959493929190612c5e565b6040805180830381600087803b15801561179157600080fd5b505af11580156117a5573d6000803e3d6000fd5b505050506040513d601f19601f820116820180604052508101906117c9919061284b565b91509150826117d857816117da565b805b6000039b9a5050505050505050505050565b600080806117fa8482611e95565b9250611807846014611f95565b9050611814846017611e95565b91509193909250565b60006118338561182e868686612085565b612102565b95945050505050565b7f000000000000000000000000000000000000000000000000000000000000000073ffffffffffffffffffffffffffffffffffffffff168473ffffffffffffffffffffffffffffffffffffffff161480156118975750804710155b156119e0577f000000000000000000000000000000000000000000000000000000000000000073ffffffffffffffffffffffffffffffffffffffff1663d0e30db0826040518263ffffffff1660e01b81526004016000604051808303818588803b15801561190457600080fd5b505af1158015611918573d6000803e3d6000fd5b50505050507f000000000000000000000000000000000000000000000000000000000000000073ffffffffffffffffffffffffffffffffffffffff1663a9059cbb83836040518363ffffffff1660e01b8152600401808373ffffffffffffffffffffffffffffffffffffffff16815260200182815260200192505050602060405180830381600087803b1580156119ae57600080fd5b505af11580156119c2573d6000803e3d6000fd5b505050506040513d60208110156119d857600080fd5b506110169050565b73ffffffffffffffffffffffffffffffffffffffff8316301415611a0e57611a09848383611c50565b611016565b61101684848484612132565b8051604211155b919050565b8051606090611a5b9083906017907fffffffffffffffffffffffffffffffffffffffffffffffffffffffffffffffe90161230f565b92915050565b600073ffffffffffffffffffffffffffffffffffffffff8416611a82573093505b6000806000611a9485600001516117ec565b9194509250905073ffffffffffffffffffffffffffffffffffffffff80841690831610600080611ac5858786611e25565b73ffffffffffffffffffffffffffffffffffffffff1663128acb088b85611aeb8f611e63565b60000373ffffffffffffffffffffffffffffffffffffffff8e1615611b10578d611b36565b87611b2f5773fffd8963efd1fc6a506488495d951d5263988d25611b36565b6401000276a45b8d604051602001611b479190612daf565b6040516020818303038152906040526040518663ffffffff1660e01b8152600401611b76959493929190612c5e565b6040805180830381600087803b158015611b8f57600080fd5b505af1158015611ba3573d6000803e3d6000fd5b505050506040513d601f19601f82011682018060405250810190611bc7919061284b565b91509150600083611bdc578183600003611be2565b82826000035b909850905073ffffffffffffffffffffffffffffffffffffffff8a16611c0e578b8114611c0e57600080fd5b50505050505050949350505050565b6060611a5b826000602b61230f565b6000821580611c4757505081810281838281611c4457fe5b04145b611a5b57600080fd5b6040805173ffffffffffffffffffffffffffffffffffffffff8481166024830152604480830185905283518084039091018152606490920183526020820180517bffffffffffffffffffffffffffffffffffffffffffffffffffffffff167fa9059cbb000000000000000000000000000000000000000000000000000000001781529251825160009485949389169392918291908083835b60208310611d2557805182527fffffffffffffffffffffffffffffffffffffffffffffffffffffffffffffffe09092019160209182019101611ce8565b6001836020036101000a0380198251168184511680821785525050505050509050019150506000604051808303816000865af19150503d8060008114611d87576040519150601f19603f3d011682016040523d82523d6000602084013e611d8c565b606091505b5091509150818015611dba575080511580611dba5750808060200190516020811015611db757600080fd5b50515b610d6857604080517f08c379a000000000000000000000000000000000000000000000000000000000815260206004820152600260248201527f5354000000000000000000000000000000000000000000000000000000000000604482015290519081900360640190fd5b6000611e5b7f0000000000000000000000000000000000000000000000000000000000000000611e56868686612085565b6124f6565b949350505050565b60007f80000000000000000000000000000000000000000000000000000000000000008210611e9157600080fd5b5090565b600081826014011015611f0957604080517f08c379a000000000000000000000000000000000000000000000000000000000815260206004820152601260248201527f746f416464726573735f6f766572666c6f770000000000000000000000000000604482015290519081900360640190fd5b8160140183511015611f7c57604080517f08c379a000000000000000000000000000000000000000000000000000000000815260206004820152601560248201527f746f416464726573735f6f75744f66426f756e64730000000000000000000000604482015290519081900360640190fd5b5001602001516c01000000000000000000000000900490565b60008182600301101561200957604080517f08c379a000000000000000000000000000000000000000000000000000000000815260206004820152601160248201527f746f55696e7432345f6f766572666c6f77000000000000000000000000000000604482015290519081900360640190fd5b816003018351101561207c57604080517f08c379a000000000000000000000000000000000000000000000000000000000815260206004820152601460248201527f746f55696e7432345f6f75744f66426f756e6473000000000000000000000000604482015290519081900360640190fd5b50016003015190565b61208d61262c565b8273ffffffffffffffffffffffffffffffffffffffff168473ffffffffffffffffffffffffffffffffffffffff1611156120c5579192915b506040805160608101825273ffffffffffffffffffffffffffffffffffffffff948516815292909316602083015262ffffff169181019190915290565b600061210e83836124f6565b90503373ffffffffffffffffffffffffffffffffffffffff821614611a5b57600080fd5b6040805173ffffffffffffffffffffffffffffffffffffffff85811660248301528481166044830152606480830185905283518084039091018152608490920183526020820180517bffffffffffffffffffffffffffffffffffffffffffffffffffffffff167f23b872dd00000000000000000000000000000000000000000000000000000000178152925182516000948594938a169392918291908083835b6020831061220f57805182527fffffffffffffffffffffffffffffffffffffffffffffffffffffffffffffffe090920191602091820191016121d2565b6001836020036101000a0380198251168184511680821785525050505050509050019150506000604051808303816000865af19150503d8060008114612271576040519150601f19603f3d011682016040523d82523d6000602084013e612276565b606091505b50915091508180156122a45750805115806122a457508080602001905160208110156122a157600080fd5b50515b61079b57604080517f08c379a000000000000000000000000000000000000000000000000000000000815260206004820152600360248201527f5354460000000000000000000000000000000000000000000000000000000000604482015290519081900360640190fd5b60608182601f01101561238357604080517f08c379a000000000000000000000000000000000000000000000000000000000815260206004820152600e60248201527f736c6963655f6f766572666c6f77000000000000000000000000000000000000604482015290519081900360640190fd5b8282840110156123f457604080517f08c379a000000000000000000000000000000000000000000000000000000000815260206004820152600e60248201527f736c6963655f6f766572666c6f77000000000000000000000000000000000000604482015290519081900360640190fd5b8183018451101561246657604080517f08c379a000000000000000000000000000000000000000000000000000000000815260206004820152601160248201527f736c6963655f6f75744f66426f756e6473000000000000000000000000000000604482015290519081900360640190fd5b60608215801561248557604051915060008252602082016040526124ed565b6040519150601f8416801560200281840101858101878315602002848b0101015b818310156124be5780518352602092830192016124a6565b5050858452601f017fffffffffffffffffffffffffffffffffffffffffffffffffffffffffffffffe016604052505b50949350505050565b6000816020015173ffffffffffffffffffffffffffffffffffffffff16826000015173ffffffffffffffffffffffffffffffffffffffff161061253857600080fd5b508051602080830151604093840151845173ffffffffffffffffffffffffffffffffffffffff94851681850152939091168385015262ffffff166060808401919091528351808403820181526080840185528051908301207fff0000000000000000000000000000000000000000000000000000000000000060a085015294901b7fffffffffffffffffffffffffffffffffffffffff0000000000000000000000001660a183015260b58201939093527f5cea2eb9879ca53b37c03e28e630340a0e2b1575e3df2ba4b38a11af3946ac9260d5808301919091528251808303909101815260f5909101909152805191012090565b604080516060810182526000808252602082018190529181019190915290565b8035611a2181612efa565b600082601f830112612667578081fd5b813561267a61267582612e8e565b612e6a565b81815284602083860101111561268e578283fd5b816020850160208301379081016020019190915292915050565b600061010082840312156104b9578081fd5b6000602082840312156126cb578081fd5b81356126d681612efa565b9392505050565b6000806000606084860312156126f1578182fd5b83356126fc81612efa565b925060208401359150604084013561271381612efa565b809150509250925092565b600080600080600060a08688031215612735578081fd5b853561274081612efa565b945060208601359350604086013561275781612efa565b925060608601359150608086013561276e81612efa565b809150509295509295909350565b60008060008060008060c08789031215612794578081fd5b863561279f81612efa565b95506020870135945060408701359350606087013560ff811681146127c2578182fd5b9598949750929560808101359460a0909101359350915050565b600080602083850312156127ee578182fd5b823567ffffffffffffffff80821115612805578384fd5b818501915085601f830112612818578384fd5b813581811115612826578485fd5b8660208083028501011115612839578485fd5b60209290920196919550909350505050565b6000806040838503121561285d578182fd5b505080516020909101519092909150565b60008060008060608587031215612883578182fd5b8435935060208501359250604085013567ffffffffffffffff808211156128a8578384fd5b818701915087601f8301126128bb578384fd5b8135818111156128c9578485fd5b8860208285010111156128da578485fd5b95989497505060200194505050565b6000602082840312156128fa578081fd5b815167ffffffffffffffff811115612910578182fd5b8201601f81018413612920578182fd5b805161292e61267582612e8e565b818152856020838501011115612942578384fd5b611833826020830160208601612ece565b600060208284031215612964578081fd5b813567ffffffffffffffff8082111561297b578283fd5b9083019060a0828603121561298e578283fd5b60405160a0810181811083821117156129a357fe5b6040528235828111156129b4578485fd5b6129c087828601612657565b8252506129cf6020840161264c565b602082015260408301356040820152606083013560608201526080830135608082015280935050505092915050565b60006101008284031215612a10578081fd5b6126d683836126a8565b600060208284031215612a2b578081fd5b813567ffffffffffffffff811115612a41578182fd5b820160a081850312156126d6578182fd5b600060208284031215612a63578081fd5b813567ffffffffffffffff80821115612a7a578283fd5b9083019060408286031215612a8d578283fd5b604051604081018181108382111715612aa257fe5b604052823582811115612ab3578485fd5b612abf87828601612657565b82525060208301359250612ad283612efa565b6020810192909252509392505050565b600060208284031215612af3578081fd5b813562ffffff811681146126d6578182fd5b60008060408385031215612b17578182fd5b823591506020830135612b2981612efa565b809150509250929050565b60008060008060808587031215612b49578182fd5b843593506020850135612b5b81612efa565b9250604085013591506060850135612b7281612efa565b939692955090935050565b60008151808452612b95816020860160208601612ece565b601f017fffffffffffffffffffffffffffffffffffffffffffffffffffffffffffffffe0169290920160200192915050565b606093841b7fffffffffffffffffffffffffffffffffffffffff000000000000000000000000908116825260e89390931b7fffffff0000000000000000000000000000000000000000000000000000000000166014820152921b166017820152602b0190565b6000828483379101908152919050565b73ffffffffffffffffffffffffffffffffffffffff91909116815260200190565b600073ffffffffffffffffffffffffffffffffffffffff8088168352861515602084015285604084015280851660608401525060a06080830152612ca560a0830184612b7d565b979650505050505050565b6000602080830181845280855180835260408601915060408482028701019250838701855b82811015612d21577fffffffffffffffffffffffffffffffffffffffffffffffffffffffffffffffc0888603018452612d0f858351612b7d565b94509285019290850190600101612cd5565b5092979650505050505050565b6000602082526126d66020830184612b7d565b60208082526012908201527f546f6f206d756368207265717565737465640000000000000000000000000000604082015260600190565b60208082526013908201527f546f6f206c6974746c6520726563656976656400000000000000000000000000604082015260600190565b600060208252825160406020840152612dcb6060840182612b7d565b905073ffffffffffffffffffffffffffffffffffffffff60208501511660408401528091505092915050565b90815260200190565b60008083357fffffffffffffffffffffffffffffffffffffffffffffffffffffffffffffffe1843603018112612e34578283fd5b83018035915067ffffffffffffffff821115612e4e578283fd5b602001915036819003821315612e6357600080fd5b9250929050565b60405181810167ffffffffffffffff81118282101715612e8657fe5b604052919050565b600067ffffffffffffffff821115612ea257fe5b50601f017fffffffffffffffffffffffffffffffffffffffffffffffffffffffffffffffe01660200190565b60005b83811015612ee9578181015183820152602001612ed1565b838111156110165750506000910152565b73ffffffffffffffffffffffffffffffffffffffff81168114612f1c57600080fd5b5056fea164736f6c6343000706000a",
  "linkReferences": {},
  "deployedLinkReferences": {}
}